{
  "contractName": "loyalty",
  "abi": [
    {
      "constant": true,
      "inputs": [
        {
          "name": "",
          "type": "address"
        }
      ],
      "name": "companies",
      "outputs": [
        {
          "name": "Cid",
          "type": "uint256"
        },
        {
          "name": "Cname",
          "type": "string"
        },
        {
          "name": "Cset",
          "type": "bool"
        }
      ],
      "payable": false,
      "stateMutability": "view",
      "type": "function"
    },
    {
      "constant": true,
      "inputs": [],
      "name": "owner",
      "outputs": [
        {
          "name": "",
          "type": "address"
        }
      ],
      "payable": false,
      "stateMutability": "view",
      "type": "function"
    },
    {
      "constant": true,
      "inputs": [
        {
          "name": "",
          "type": "address"
        }
      ],
      "name": "users",
      "outputs": [
        {
          "name": "Uid",
          "type": "uint256"
        },
        {
          "name": "Uname",
          "type": "string"
        },
        {
          "name": "Uset",
          "type": "bool"
        }
      ],
      "payable": false,
      "stateMutability": "view",
      "type": "function"
    },
    {
      "inputs": [],
      "payable": false,
      "stateMutability": "nonpayable",
      "type": "constructor"
    },
    {
      "constant": false,
      "inputs": [
        {
          "name": "_userId",
          "type": "uint256"
        },
        {
          "name": "_userName",
          "type": "string"
        }
      ],
      "name": "createUser",
      "outputs": [],
      "payable": false,
      "stateMutability": "nonpayable",
      "type": "function"
    },
    {
      "constant": false,
      "inputs": [
        {
          "name": "_companyId",
          "type": "uint256"
        },
        {
          "name": "_companyName",
          "type": "string"
        }
      ],
      "name": "createCompany",
      "outputs": [],
      "payable": false,
      "stateMutability": "nonpayable",
      "type": "function"
    },
    {
      "constant": true,
      "inputs": [
        {
          "name": "_owner",
          "type": "address"
        }
      ],
      "name": "balanceOf",
      "outputs": [
        {
          "name": "balance",
          "type": "uint256"
        }
      ],
      "payable": false,
      "stateMutability": "view",
      "type": "function"
    }
  ],
  "bytecode": "0x608060405234801561001057600080fd5b50336000806101000a81548173ffffffffffffffffffffffffffffffffffffffff021916908373ffffffffffffffffffffffffffffffffffffffff1602179055506108b3806100606000396000f300608060405260043610610078576000357c0100000000000000000000000000000000000000000000000000000000900463ffffffff1680632efbf57e1461007d578063355e6ce8146100f05780634431df34146101be57806370a08231146102315780638da5cb5b14610288578063a87430ba146102df575b600080fd5b34801561008957600080fd5b506100ee60048036038101908080359060200190929190803590602001908201803590602001908080601f01602080910402602001604051908101604052809392919081815260200183838082843782019150505050505091929192905050506103ad565b005b3480156100fc57600080fd5b50610131600480360381019080803573ffffffffffffffffffffffffffffffffffffffff1690602001909291905050506104c0565b604051808481526020018060200183151515158152602001828103825284818151815260200191508051906020019080838360005b83811015610181578082015181840152602081019050610166565b50505050905090810190601f1680156101ae5780820380516001836020036101000a031916815260200191505b5094505050505060405180910390f35b3480156101ca57600080fd5b5061022f60048036038101908080359060200190929190803590602001908201803590602001908080601f016020809104026020016040519081016040528093929190818152602001838380828437820191505050505050919291929050505061058f565b005b34801561023d57600080fd5b50610272600480360381019080803573ffffffffffffffffffffffffffffffffffffffff1690602001909291905050506106a2565b6040518082815260200191505060405180910390f35b34801561029457600080fd5b5061029d6106ee565b604051808273ffffffffffffffffffffffffffffffffffffffff1673ffffffffffffffffffffffffffffffffffffffff16815260200191505060405180910390f35b3480156102eb57600080fd5b50610320600480360381019080803573ffffffffffffffffffffffffffffffffffffffff169060200190929190505050610713565b604051808481526020018060200183151515158152602001828103825284818151815260200191508051906020019080838360005b83811015610370578082015181840152602081019050610355565b50505050905090810190601f16801561039d5780820380516001836020036101000a031916815260200191505b5094505050505060405180910390f35b600080339150600260008373ffffffffffffffffffffffffffffffffffffffff1673ffffffffffffffffffffffffffffffffffffffff16815260200190815260200160002090508060020160009054906101000a900460ff1615151561041257600080fd5b60606040519081016040528085815260200184815260200160011515815250600260008473ffffffffffffffffffffffffffffffffffffffff1673ffffffffffffffffffffffffffffffffffffffff1681526020019081526020016000206000820151816000015560208201518160010190805190602001906104969291906107e2565b5060408201518160020160006101000a81548160ff02191690831515021790555090505050505050565b6003602052806000526040600020600091509050806000015490806001018054600181600116156101000203166002900480601f0160208091040260200160405190810160405280929190818152602001828054600181600116156101000203166002900480156105725780601f1061054757610100808354040283529160200191610572565b820191906000526020600020905b81548152906001019060200180831161055557829003601f168201915b5050505050908060020160009054906101000a900460ff16905083565b600080339150600360008373ffffffffffffffffffffffffffffffffffffffff1673ffffffffffffffffffffffffffffffffffffffff16815260200190815260200160002090508060020160009054906101000a900460ff161515156105f457600080fd5b60606040519081016040528085815260200184815260200160011515815250600360008473ffffffffffffffffffffffffffffffffffffffff1673ffffffffffffffffffffffffffffffffffffffff1681526020019081526020016000206000820151816000015560208201518160010190805190602001906106789291906107e2565b5060408201518160020160006101000a81548160ff02191690831515021790555090505050505050565b6000339150600160008373ffffffffffffffffffffffffffffffffffffffff1673ffffffffffffffffffffffffffffffffffffffff168152602001908152602001600020549050919050565b6000809054906101000a900473ffffffffffffffffffffffffffffffffffffffff1681565b6002602052806000526040600020600091509050806000015490806001018054600181600116156101000203166002900480601f0160208091040260200160405190810160405280929190818152602001828054600181600116156101000203166002900480156107c55780601f1061079a576101008083540402835291602001916107c5565b820191906000526020600020905b8154815290600101906020018083116107a857829003601f168201915b5050505050908060020160009054906101000a900460ff16905083565b828054600181600116156101000203166002900490600052602060002090601f016020900481019282601f1061082357805160ff1916838001178555610851565b82800160010185558215610851579182015b82811115610850578251825591602001919060010190610835565b5b50905061085e9190610862565b5090565b61088491905b80821115610880576000816000905550600101610868565b5090565b905600a165627a7a72305820317a019393f9085ec4bb5fa777726bde18ea6fb5cfa26b42739e9a896856753e0029",
  "source": "pragma solidity ^0.4.17;\n\ncontract loyalty {\n  address public owner;\n  mapping(address => uint256) balances;\n\nstruct User {\n    uint256 Uid;\n    string Uname;\n    bool Uset;\n}\n\nstruct Company {\n  uint256 Cid;\n  string Cname;\n  bool Cset;\n}\n\n  mapping(address => User) public users;\n  mapping(address => Company) public companies;\n\n  function loyalty() public{\n    owner = msg.sender;\n  }\n\n  function createUser(uint256 _userId, string _userName) public {\n      address _userAddress = msg.sender;\n      User storage user = users[_userAddress];\n      // Check that the user did not already exist:\n      require(!user.Uset);\n      //Store the user\n      users[_userAddress] = User({\n          Uid: _userId,\n          Uname: _userName,\n          Uset: true\n      });\n  }\n\n  function createCompany(uint256 _companyId, string _companyName) public {\n      address _companyAddress = msg.sender;\n\n      Company storage company = companies[_companyAddress];\n\n      require(!company.Cset);\n\n      companies[_companyAddress] = Company({\n          Cid: _companyId,\n          Cname: _companyName,\n          Cset: true\n      });\n  }\n\n   function balanceOf(address _owner) public constant returns (uint256 balance) {\n       _owner = msg.sender;\n       return balances[_owner];\n    }\n\n/*    function getUsers() public view returns (string) {\n        return users[msg.sender];\n    }*/\n}\n\n",
  "sourcePath": "/home/rishabh/loyalty-truffle/contracts/loyalty.sol",
  "compiler": {
    "name": "solc",
    "version": "0.4.24+commit.e67f0147.Emscripten.clang"
  },
  "schemaVersion": "2.0.1",
  "updatedAt": "2018-07-16T10:18:12.905Z"
}